[
["The following are deserialized transactions which are invalid."],
["They are in the form"],
["[[[prevout hash, prevout index, prevout scriptPubKey], [input 2], ...],"],
["serializedTransaction, verifyFlags]"],
["Objects that are only a single string (like this one) are ignored"],


["Tests for CheckTransaction()"],
["No inputs"],
[[["0000000000000000000000000000000000000000000000000000000000000100", 0, "HASH160 0x14 0x7a052c840ba73af26755de42cf01cc9e0a49fef0 EQUAL"]],
"010000000000010000000000000000000151000000000000000000000000000000000000000000000000000000000000000000000000000000000000000000000000000000000000000000000000000000000000000000000000000000000000000000000000000000000000000000000000000000000000000000000000000000000000000000000000000000000000000000000000000000000000000000000000000000", 
"bad-txns-vin-empty"],

["No outputs"],
[[["0000000000000000000000000000000000000000000000000000000000000100", 0, "HASH160 0x14 0x05ab9e14d983742513f0f451e105ffb4198d1dd4 EQUAL"]],
"0100000000010001000000000000000000000000000000000000000000000000000000000000000000006d483045022100f16703104aab4e4088317c862daec83440242411b039d14280e03dd33b487ab802201318a7be236672c5c56083eb7a5a195bc57a40af7923ff8545016cd3b571e2a601232103c40e5d339df3f30bf753e7e04450ae4ef76c9e45587d1d993bdc4cd06f0651c7acffffffff0000000000000000000000000000000000000000000000000000000000000000000000000000000000000000000000000000000000000000000000000000000000000000000000000000000000000000000000000000000000000000000000000000000000000000000000000000000000000000", 
"bad-txns-vout-empty"],

["Negative output"],
[[["0000000000000000000000000000000000000000000000000000000000000100", 0, "HASH160 0x14 0xae609aca8061d77c5e111f6bb62501a6bbe2bfdb EQUAL"]],
"0100000000010001000000000000000000000000000000000000000000000000000000000000000000006d4830450220063222cbb128731fc09de0d7323746539166544d6c1df84d867ccea84bcc8903022100bf568e8552844de664cd41648a031554327aa8844af34b4f27397c65b92c04de0123210243ec37dee0e2e053a9c976f43147e79bc7d9dc606ea51010af1ac80db6b069e1acffffffff01ffffffffffffffff000151000000000000000000000000000000000000000000000000000000000000000000000000000000000000000000000000000000000000000000000000000000000000000000000000000000000000000000000000000000000000000000000000000000000000000000000000000000000000000000000000000000000000000000000000000000000000000000000000000000", 
"bad-txns-vout-negative"],

["MAX_MONEY + 1 output"],
[[["0000000000000000000000000000000000000000000000000000000000000100", 0, "HASH160 0x14 0x32afac281462b822adbec5094b8d4d337dd5bd6a EQUAL"]],
"0100000000010001000000000000000000000000000000000000000000000000000000000000000000006e493046022100e1eadba00d9296c743cb6ecc703fd9ddc9b3cd12906176a226ae4c18d6b00796022100a71aef7d2874deff681ba6080f1b278bac7bb99c61b08a85f4311970ffe7f63f012321030c0588dc44d92bdcbf8e72093466766fdc265ead8db64517b0c542275b70fffbacffffffff010100d52ae311ea02000151000000000000000000000000000000000000000000000000000000000000000000000000000000000000000000000000000000000000000000000000000000000000000000000000000000000000000000000000000000000000000000000000000000000000000000000000000000000000000000000000000000000000000000000000000000000000000000000000000000", 
"bad-txns-vout-toolarge"],

["MAX_MONEY output + 1 output"],
[[["0000000000000000000000000000000000000000000000000000000000000100", 0, "HASH160 0x14 0xb558cbf4930954aa6a344363a15668d7477ae716 EQUAL"]],
"0100000000010001000000000000000000000000000000000000000000000000000000000000000000006d483045022027deccc14aa6668e78a8c9da3484fbcd4f9dcc9bb7d1b85146314b21b9ae4d86022100d0b43dece8cfb07348de0ca8bc5b86276fa88f7f2138381128b7c36ab2e42264012321029bb13463ddd5d2cc05da6e84e37536cb9525703cfd8f43afdb414988987a92f6acffffffff020000d52ae311ea0200015100000000000000000000000000000000000000000000000000000000000000000001000000000000000151000000000000000000000000000000000000000000000000000000000000000000000000000000000000000000000000000000000000000000000000000000000000000000000000000000000000000000000000000000000000000000000000000000000000000000000000000000000000000000000000000000000000000000000000000000000000000000000000000000", 
"bad-txns-txouttotal-toolarge"],

["Duplicate inputs"],
[[["0000000000000000000000000000000000000000000000000000000000000100", 0, "HASH160 0x14 0x236d0639db62b0773fd8ac34dc85ae19e9aba80a EQUAL"]],
"0100000000020001000000000000000000000000000000000000000000000000000000000000000000006c47304402204bb1197053d0d7799bf1b30cd503c44b58d6240cccbdc85b6fe76d087980208f02204beeed78200178ffc6c74237bb74b3f276bbb4098b5605d814304fe128bf1431012321039e8815e15952a7c3fada1905f8cf55419837133bd7756c0ef14fc8dfe50c0deaacffffffff0001000000000000000000000000000000000000000000000000000000000000000000006c47304402202306489afef52a6f62e90bf750bbcdf40c06f5c6b138286e6b6b86176bb9341802200dba98486ea68380f47ebb19a7df173b99e6bc9c681d6ccf3bde31465d1f16b3012321039e8815e15952a7c3fada1905f8cf55419837133bd7756c0ef14fc8dfe50c0deaacffffffff010000000000000000000151000000000000000000000000000000000000000000000000000000000000000000000000000000000000000000000000000000000000000000000000000000000000000000000000000000000000000000000000000000000000000000000000000000000000000000000000000000000000000000000000000000000000000000000000000000000000000000000000000000", 
"bad-txns-inputs-duplicate"],


["Coinbase of size 1"],
["Note the input is just required to make the tester happy"],
[[["0000000000000000000000000000000000000000000000000000000000000000", -1, "1"]],
"0100000000010000000000000000000000000000000000000000000000000000000000000000ffffffff0151ffffffff010000000000000000000151000000000000000000000000000000000000000000000000000000000000000000000000000000000000000000000000000000000000000000000000000000000000000000000000000000000000000000000000000000000000000000000000000000000000000000000000000000000000000000000000000000000000000000000000000000000000000000000000000000", 
"bad-cb-length"],

["Coinbase of size 101"],
["Note the input is just required to make the tester happy"],
[[["0000000000000000000000000000000000000000000000000000000000000000", -1, "1"]],
"0100000000010000000000000000000000000000000000000000000000000000000000000000ffffffff655151515151515151515151515151515151515151515151515151515151515151515151515151515151515151515151515151515151515151515151515151515151515151515151515151515151515151515151515151515151515151515151515151515151ffffffff010000000000000000000151000000000000000000000000000000000000000000000000000000000000000000000000000000000000000000000000000000000000000000000000000000000000000000000000000000000000000000000000000000000000000000000000000000000000000000000000000000000000000000000000000000000000000000000000000000000000000000000000000000", 
"bad-cb-length"],

["Null txin"],
[[["0000000000000000000000000000000000000000000000000000000000000000", -1, "HASH160 0x14 0x02dae7dbbda56097959cba59b1989dd3e47937bf EQUAL"]],
"0100000000010000000000000000000000000000000000000000000000000000000000000000ffffffff6e49304602210086f39e028e46dafa8e1e3be63906465f4cf038fbe5ed6403dc3e74ae876e6431022100c4625c675cfc5c7e3a0e0d7eaec92ac24da20c73a88eb40d09253e51ac6def5201232103a183ddc41e84753aca47723c965d1b5c8b0e2b537963518355e6dd6cf8415e50acffffffff010000000000000000000151000000000000000000000000000000000000000000000000000000000000000000000000000000000000000000000000000000000000000000000000000000000000000000000000000000000000000000000000000000000000000000000000000000000000000000000000000000000000000000000000000000000000000000000000000000000000000000000000000000", 
"bad-cb-length"],

["For clue transactions"],
["tx.flag<>1 then vout.flag must not be 1"],
[[],
"010000000001f84dd91e534d9142566bd60a72c4058fa3032a85bde23a5baec14d2861bc23e1000000006b483045022100b62bcf06379971f4a81cf4ba70d755fd3b105bbeea7ebe04a255948063278e5c02201b7ec8ca01ad4ac2f74ceb84727bd43ab84a514954ef78d5492f646100c16bc10121020562d80488545c545377fae25cf15473ac8f275033bfa769bdd0c482f59e97e5ffffffff020084d71700000000011976a914259b431a1b67dbaf38594c64c69a7acaa6292f6b88ac000000000000000000000000000000000000000000000000000000000000000000aaa0680b000000001976a914e3542fb7a7a5eb4a9a28713219ae8b81390a6bf688ac00000000000000000000000000000000000000000000000000000000000000000000000000000000000000000000000000000000000000000000000000000000000000000000000000000000000000000000000000000000000000000000000000000000000000000000000000000000000000",
"bad-txns-vout-clue-illegal"],

["vout.flag=0 must be just one"],
[[],
"0100000001023a7ae0e85f10ac76fa41e0f6cd3938fe4c542a4dbf2a40e0fc39630ae9aa749e0100000000ffffffff6dcca25410f052e302481354738bbe0448ae6a0e618be3f6a66b831e2f3fb19b0100000000ffffffff030084d71700000000011976a914259b431a1b67dbaf38594c64c69a7acaa6292f6b88ac000000000000000000000000000000000000000000000000000000000000000000e1f50500000000001976a914522a7b595f4e2f1dfdd0d352fa86d24b9bc0e3d588ac000000000000000000000000000000000000000000000000000000000000000000e1f50500000000001976a914e3542fb7a7a5eb4a9a28713219ae8b81390a6bf688ac0000000000000000000000000000000000000000000000000000000000000000000000000000000000000000000000000000000000000000000000000000000000000000000000000000000000000000000000000000000000000000000000000000000000000000000000000000000000000000",
"bad-txns-vout-clue-illegal"],


["vout.flag=1 vout value must be 0.5 or 3.5 or 4"],
[[],
"0100000001023a7ae0e85f10ac76fa41e0f6cd3938fe4c542a4dbf2a40e0fc39630ae9aa749e0100000000ffffffff6dcca25410f052e302481354738bbe0448ae6a0e618be3f6a66b831e2f3fb19b0100000000ffffffff02801a701800000000011976a914259b431a1b67dbaf38594c64c69a7acaa6292f6b88ac000000000000000000000000000000000000000000000000000000000000000000e1f50500000000001976a914522a7b595f4e2f1dfdd0d352fa86d24b9bc0e3d588ac0000000000000000000000000000000000000000000000000000000000000000000000000000000000000000000000000000000000000000000000000000000000000000000000000000000000000000000000000000000000000000000000000000000000000000000000000000000000000000",
"bad-txns-vout-clue-illegal"],

["vout.flag=1 MULTI vout value greater than 0.5"],
[[],
"0100000001023a7ae0e85f10ac76fa41e0f6cd3938fe4c542a4dbf2a40e0fc39630ae9aa749e0100000000ffffffff6dcca25410f052e302481354738bbe0448ae6a0e618be3f6a66b831e2f3fb19b0100000000ffffffff020084d71700000000011976a914259b431a1b67dbaf38594c64c69a7acaa6292f6b88ac00000000000000000000000000000000000000000000000000000000000000008093dc1400000000011976a914522a7b595f4e2f1dfdd0d352fa86d24b9bc0e3d588ac0000000000000000000000000000000000000000000000000000000000000000000000000000000000000000000000000000000000000000000000000000000000000000000000000000000000000000000000000000000000000000000000000000000000000000000000000000000000000000",
"bad-txns-vout-clue-illegal"],

["vout.flag=1 NO vout value greater than 0.5"],
[[],
"0100000001023a7ae0e85f10ac76fa41e0f6cd3938fe4c542a4dbf2a40e0fc39630ae9aa749e0100000000ffffffff6dcca25410f052e302481354738bbe0448ae6a0e618be3f6a66b831e2f3fb19b0100000000ffffffff0280f0fa0200000000011976a914259b431a1b67dbaf38594c64c69a7acaa6292f6b88ac000000000000000000000000000000000000000000000000000000000000000080f0fa0200000000011976a914522a7b595f4e2f1dfdd0d352fa86d24b9bc0e3d588ac0000000000000000000000000000000000000000000000000000000000000000000000000000000000000000000000000000000000000000000000000000000000000000000000000000000000000000000000000000000000000000000000000000000000000000000000000000000000000000",
"bad-txns-vout-clue-illegal"],

["vout.flag=1 Duplicate vout address vahkqc3LRgERbkcE81Ag9CrrdLpdZ9Dcyha"],
[[],
"0100000001023a7ae0e85f10ac76fa41e0f6cd3938fe4c542a4dbf2a40e0fc39630ae9aa749e0100000000ffffffff6dcca25410f052e302481354738bbe0448ae6a0e618be3f6a66b831e2f3fb19b0100000000ffffffff02801a701800000000011976a914259b431a1b67dbaf38594c64c69a7acaa6292f6b88ac000000000000000000000000000000000000000000000000000000000000000000e1f50500000000001976a914522a7b595f4e2f1dfdd0d352fa86d24b9bc0e3d588ac0000000000000000000000000000000000000000000000000000000000000000000000000000000000000000000000000000000000000000000000000000000000000000000000000000000000000000000000000000000000000000000000000000000000000000000000000000000000000000",
"bad-txns-vout-clue-illegal"],

["vout.flag=1 too many vout, greater than 12"],
[[],
"0100000001023a7ae0e85f10ac76fa41e0f6cd3938fe4c542a4dbf2a40e0fc39630ae9aa749e0100000000ffffffff6dcca25410f052e302481354738bbe0448ae6a0e618be3f6a66b831e2f3fb19b0100000000ffffffff0d0084d71700000000011976a914259b431a1b67dbaf38594c64c69a7acaa6292f6b88ac000000000000000000000000000000000000000000000000000000000000000080f0fa0200000000011976a914522a7b595f4e2f1dfdd0d352fa86d24b9bc0e3d588ac000000000000000000000000000000000000000000000000000000000000000080f0fa0200000000011976a914e3542fb7a7a5eb4a9a28713219ae8b81390a6bf688ac000000000000000000000000000000000000000000000000000000000000000080f0fa0200000000011976a914d33456c9b2fbcfa5a914d789d91931451c93eace88ac000000000000000000000000000000000000000000000000000000000000000080f0fa0200000000011976a914a3b70a55740d48a58a2d7f2892b2c28aa3062a8188ac000000000000000000000000000000000000000000000000000000000000000080f0fa0200000000011976a9147b8dbe5e48247fd649ae770545a6cbdde4c7dd0f88ac000000000000000000000000000000000000000000000000000000000000000080f0fa0200000000011976a9145836b763a070b5aa4a76c389a8043230e266307188ac000000000000000000000000000000000000000000000000000000000000000080f0fa0200000000011976a9146bcc02bb8c2ccfdd710d562843a0ba30583f750d88ac000000000000000000000000000000000000000000000000000000000000000080f0fa0200000000011976a914390b82daad9f2fe67ca4c3960339bebb74a786e588ac000000000000000000000000000000000000000000000000000000000000000080f0fa0200000000011976a914cca714421257c4b4a8d0d8005d926792fb03f09588ac000000000000000000000000000000000000000000000000000000000000000080f0fa0200000000011976a914db4c5a872a770ec1d8cd8991026d43f3bd04411388ac000000000000000000000000000000000000000000000000000000000000000080f0fa0200000000011976a9143f4160ae1eb5bbd4d18f13fe7c7bf493348642ce88ac000000000000000000000000000000000000000000000000000000000000000080f0fa0200000000011976a914671c38f40b5d2c521501baaee18900ec1e62f72988ac0000000000000000000000000000000000000000000000000000000000000000000000000000000000000000000000000000000000000000000000000000000000000000000000000000000000000000000000000000000000000000000000000000000000000000000000000000000000000000",
"bad-txns-vout-clue-illegal"],

["Make diffs cleaner by leaving a comment here without comma at the end"]
]
